{
  "contractName": "MyTokenTransparent",
  "abi": [
    {
      "inputs": [],
      "stateMutability": "nonpayable",
      "type": "constructor"
    },
    {
      "anonymous": false,
      "inputs": [
        {
          "indexed": true,
          "internalType": "address",
          "name": "owner",
          "type": "address"
        },
        {
          "indexed": true,
          "internalType": "address",
          "name": "spender",
          "type": "address"
        },
        {
          "indexed": false,
          "internalType": "uint256",
          "name": "value",
          "type": "uint256"
        }
      ],
      "name": "Approval",
      "type": "event"
    },
    {
      "anonymous": false,
      "inputs": [
        {
          "indexed": false,
          "internalType": "uint8",
          "name": "version",
          "type": "uint8"
        }
      ],
      "name": "Initialized",
      "type": "event"
    },
    {
      "anonymous": false,
      "inputs": [
        {
          "indexed": true,
          "internalType": "address",
          "name": "from",
          "type": "address"
        },
        {
          "indexed": true,
          "internalType": "address",
          "name": "to",
          "type": "address"
        },
        {
          "indexed": false,
          "internalType": "uint256",
          "name": "value",
          "type": "uint256"
        }
      ],
      "name": "Transfer",
      "type": "event"
    },
    {
      "inputs": [
        {
          "internalType": "address",
          "name": "owner",
          "type": "address"
        },
        {
          "internalType": "address",
          "name": "spender",
          "type": "address"
        }
      ],
      "name": "allowance",
      "outputs": [
        {
          "internalType": "uint256",
          "name": "",
          "type": "uint256"
        }
      ],
      "stateMutability": "view",
      "type": "function",
      "constant": true
    },
    {
      "inputs": [
        {
          "internalType": "address",
          "name": "spender",
          "type": "address"
        },
        {
          "internalType": "uint256",
          "name": "amount",
          "type": "uint256"
        }
      ],
      "name": "approve",
      "outputs": [
        {
          "internalType": "bool",
          "name": "",
          "type": "bool"
        }
      ],
      "stateMutability": "nonpayable",
      "type": "function"
    },
    {
      "inputs": [
        {
          "internalType": "address",
          "name": "account",
          "type": "address"
        }
      ],
      "name": "balanceOf",
      "outputs": [
        {
          "internalType": "uint256",
          "name": "",
          "type": "uint256"
        }
      ],
      "stateMutability": "view",
      "type": "function",
      "constant": true
    },
    {
      "inputs": [],
      "name": "decimals",
      "outputs": [
        {
          "internalType": "uint8",
          "name": "",
          "type": "uint8"
        }
      ],
      "stateMutability": "view",
      "type": "function",
      "constant": true
    },
    {
      "inputs": [
        {
          "internalType": "address",
          "name": "spender",
          "type": "address"
        },
        {
          "internalType": "uint256",
          "name": "subtractedValue",
          "type": "uint256"
        }
      ],
      "name": "decreaseAllowance",
      "outputs": [
        {
          "internalType": "bool",
          "name": "",
          "type": "bool"
        }
      ],
      "stateMutability": "nonpayable",
      "type": "function"
    },
    {
      "inputs": [
        {
          "internalType": "address",
          "name": "spender",
          "type": "address"
        },
        {
          "internalType": "uint256",
          "name": "addedValue",
          "type": "uint256"
        }
      ],
      "name": "increaseAllowance",
      "outputs": [
        {
          "internalType": "bool",
          "name": "",
          "type": "bool"
        }
      ],
      "stateMutability": "nonpayable",
      "type": "function"
    },
    {
      "inputs": [],
      "name": "name",
      "outputs": [
        {
          "internalType": "string",
          "name": "",
          "type": "string"
        }
      ],
      "stateMutability": "view",
      "type": "function",
      "constant": true
    },
    {
      "inputs": [],
      "name": "symbol",
      "outputs": [
        {
          "internalType": "string",
          "name": "",
          "type": "string"
        }
      ],
      "stateMutability": "view",
      "type": "function",
      "constant": true
    },
    {
      "inputs": [],
      "name": "totalSupply",
      "outputs": [
        {
          "internalType": "uint256",
          "name": "",
          "type": "uint256"
        }
      ],
      "stateMutability": "view",
      "type": "function",
      "constant": true
    },
    {
      "inputs": [
        {
          "internalType": "address",
          "name": "to",
          "type": "address"
        },
        {
          "internalType": "uint256",
          "name": "amount",
          "type": "uint256"
        }
      ],
      "name": "transfer",
      "outputs": [
        {
          "internalType": "bool",
          "name": "",
          "type": "bool"
        }
      ],
      "stateMutability": "nonpayable",
      "type": "function"
    },
    {
      "inputs": [
        {
          "internalType": "address",
          "name": "from",
          "type": "address"
        },
        {
          "internalType": "address",
          "name": "to",
          "type": "address"
        },
        {
          "internalType": "uint256",
          "name": "amount",
          "type": "uint256"
        }
      ],
      "name": "transferFrom",
      "outputs": [
        {
          "internalType": "bool",
          "name": "",
          "type": "bool"
        }
      ],
      "stateMutability": "nonpayable",
      "type": "function"
    },
    {
      "inputs": [],
      "name": "initialize",
      "outputs": [],
      "stateMutability": "nonpayable",
      "type": "function"
    }
  ],
  "bytecode": "0x60806040523480156200001157600080fd5b50620000226200002860201b60201c565b620001d3565b600060019054906101000a900460ff16156200007b576040517f08c379a0000000000000000000000000000000000000000000000000000000008152600401620000729062000176565b60405180910390fd5b60ff801660008054906101000a900460ff1660ff161015620000ed5760ff6000806101000a81548160ff021916908360ff1602179055507f7f26b83ff96e1f2b6a682f133852f6798a09c465da95921460cefb384740249860ff604051620000e49190620001b6565b60405180910390a15b565b600082825260208201905092915050565b7f496e697469616c697a61626c653a20636f6e747261637420697320696e69746960008201527f616c697a696e6700000000000000000000000000000000000000000000000000602082015250565b60006200015e602783620000ef565b91506200016b8262000100565b604082019050919050565b6000602082019050818103600083015262000191816200014f565b9050919050565b600060ff82169050919050565b620001b08162000198565b82525050565b6000602082019050620001cd6000830184620001a5565b92915050565b611d0d80620001e36000396000f3fe608060405234801561001057600080fd5b50600436106100b45760003560e01c806370a082311161007157806370a08231146101a35780638129fc1c146101d357806395d89b41146101dd578063a457c2d7146101fb578063a9059cbb1461022b578063dd62ed3e1461025b576100b4565b806306fdde03146100b9578063095ea7b3146100d757806318160ddd1461010757806323b872dd14610125578063313ce567146101555780633950935114610173575b600080fd5b6100c161028b565b6040516100ce9190610f5d565b60405180910390f35b6100f160048036038101906100ec9190611018565b61031d565b6040516100fe9190611073565b60405180910390f35b61010f610340565b60405161011c919061109d565b60405180910390f35b61013f600480360381019061013a91906110b8565b61034a565b60405161014c9190611073565b60405180910390f35b61015d610379565b60405161016a9190611127565b60405180910390f35b61018d60048036038101906101889190611018565b610382565b60405161019a9190611073565b60405180910390f35b6101bd60048036038101906101b89190611142565b6103b9565b6040516101ca919061109d565b60405180910390f35b6101db610402565b005b6101e56105d5565b6040516101f29190610f5d565b60405180910390f35b61021560048036038101906102109190611018565b610667565b6040516102229190611073565b60405180910390f35b61024560048036038101906102409190611018565b6106de565b6040516102529190611073565b60405180910390f35b6102756004803603810190610270919061116f565b610701565b604051610282919061109d565b60405180910390f35b60606036805461029a906111de565b80601f01602080910402602001604051908101604052809291908181526020018280546102c6906111de565b80156103135780601f106102e857610100808354040283529160200191610313565b820191906000526020600020905b8154815290600101906020018083116102f657829003601f168201915b5050505050905090565b600080610328610788565b9050610335818585610790565b600191505092915050565b6000603554905090565b600080610355610788565b9050610362858285610959565b61036d8585856109e5565b60019150509392505050565b60006012905090565b60008061038d610788565b90506103ae81858561039f8589610701565b6103a9919061123e565b610790565b600191505092915050565b6000603360008373ffffffffffffffffffffffffffffffffffffffff1673ffffffffffffffffffffffffffffffffffffffff168152602001908152602001600020549050919050565b60008060019054906101000a900460ff161590508080156104335750600160008054906101000a900460ff1660ff16105b80610460575061044230610c67565b15801561045f5750600160008054906101000a900460ff1660ff16145b5b61049f576040517f08c379a000000000000000000000000000000000000000000000000000000000815260040161049690611306565b60405180910390fd5b60016000806101000a81548160ff021916908360ff16021790555080156104dc576001600060016101000a81548160ff0219169083151502179055505b6105506040518060400160405280601281526020017f4d79546f6b656e5472616e73706172656e7400000000000000000000000000008152506040518060400160405280600481526020017f4d544b5400000000000000000000000000000000000000000000000000000000815250610c8a565b6105793361055c610379565b600a6105689190611459565b606461057491906114a4565b610ce7565b80156105d25760008060016101000a81548160ff0219169083151502179055507f7f26b83ff96e1f2b6a682f133852f6798a09c465da95921460cefb384740249860016040516105c99190611543565b60405180910390a15b50565b6060603780546105e4906111de565b80601f0160208091040260200160405190810160405280929190818152602001828054610610906111de565b801561065d5780601f106106325761010080835404028352916020019161065d565b820191906000526020600020905b81548152906001019060200180831161064057829003601f168201915b5050505050905090565b600080610672610788565b905060006106808286610701565b9050838110156106c5576040517f08c379a00000000000000000000000000000000000000000000000000000000081526004016106bc906115d0565b60405180910390fd5b6106d28286868403610790565b60019250505092915050565b6000806106e9610788565b90506106f68185856109e5565b600191505092915050565b6000603460008473ffffffffffffffffffffffffffffffffffffffff1673ffffffffffffffffffffffffffffffffffffffff16815260200190815260200160002060008373ffffffffffffffffffffffffffffffffffffffff1673ffffffffffffffffffffffffffffffffffffffff16815260200190815260200160002054905092915050565b600033905090565b600073ffffffffffffffffffffffffffffffffffffffff168373ffffffffffffffffffffffffffffffffffffffff16036107ff576040517f08c379a00000000000000000000000000000000000000000000000000000000081526004016107f690611662565b60405180910390fd5b600073ffffffffffffffffffffffffffffffffffffffff168273ffffffffffffffffffffffffffffffffffffffff160361086e576040517f08c379a0000000000000000000000000000000000000000000000000000000008152600401610865906116f4565b60405180910390fd5b80603460008573ffffffffffffffffffffffffffffffffffffffff1673ffffffffffffffffffffffffffffffffffffffff16815260200190815260200160002060008473ffffffffffffffffffffffffffffffffffffffff1673ffffffffffffffffffffffffffffffffffffffff168152602001908152602001600020819055508173ffffffffffffffffffffffffffffffffffffffff168373ffffffffffffffffffffffffffffffffffffffff167f8c5be1e5ebec7d5bd14f71427d1e84f3dd0314c0f7b2291e5b200ac8c7c3b9258360405161094c919061109d565b60405180910390a3505050565b60006109658484610701565b90507fffffffffffffffffffffffffffffffffffffffffffffffffffffffffffffffff81146109df57818110156109d1576040517f08c379a00000000000000000000000000000000000000000000000000000000081526004016109c890611760565b60405180910390fd5b6109de8484848403610790565b5b50505050565b600073ffffffffffffffffffffffffffffffffffffffff168373ffffffffffffffffffffffffffffffffffffffff1603610a54576040517f08c379a0000000000000000000000000000000000000000000000000000000008152600401610a4b906117f2565b60405180910390fd5b600073ffffffffffffffffffffffffffffffffffffffff168273ffffffffffffffffffffffffffffffffffffffff1603610ac3576040517f08c379a0000000000000000000000000000000000000000000000000000000008152600401610aba90611884565b60405180910390fd5b610ace838383610e47565b6000603360008573ffffffffffffffffffffffffffffffffffffffff1673ffffffffffffffffffffffffffffffffffffffff16815260200190815260200160002054905081811015610b55576040517f08c379a0000000000000000000000000000000000000000000000000000000008152600401610b4c90611916565b60405180910390fd5b818103603360008673ffffffffffffffffffffffffffffffffffffffff1673ffffffffffffffffffffffffffffffffffffffff1681526020019081526020016000208190555081603360008573ffffffffffffffffffffffffffffffffffffffff1673ffffffffffffffffffffffffffffffffffffffff1681526020019081526020016000206000828254610bea919061123e565b925050819055508273ffffffffffffffffffffffffffffffffffffffff168473ffffffffffffffffffffffffffffffffffffffff167fddf252ad1be2c89b69c2b068fc378daa952ba7f163c4a11628f55a4df523b3ef84604051610c4e919061109d565b60405180910390a3610c61848484610e4c565b50505050565b6000808273ffffffffffffffffffffffffffffffffffffffff163b119050919050565b600060019054906101000a900460ff16610cd9576040517f08c379a0000000000000000000000000000000000000000000000000000000008152600401610cd0906119a8565b60405180910390fd5b610ce38282610e51565b5050565b600073ffffffffffffffffffffffffffffffffffffffff168273ffffffffffffffffffffffffffffffffffffffff1603610d56576040517f08c379a0000000000000000000000000000000000000000000000000000000008152600401610d4d90611a14565b60405180910390fd5b610d6260008383610e47565b8060356000828254610d74919061123e565b9250508190555080603360008473ffffffffffffffffffffffffffffffffffffffff1673ffffffffffffffffffffffffffffffffffffffff1681526020019081526020016000206000828254610dca919061123e565b925050819055508173ffffffffffffffffffffffffffffffffffffffff16600073ffffffffffffffffffffffffffffffffffffffff167fddf252ad1be2c89b69c2b068fc378daa952ba7f163c4a11628f55a4df523b3ef83604051610e2f919061109d565b60405180910390a3610e4360008383610e4c565b5050565b505050565b505050565b600060019054906101000a900460ff16610ea0576040517f08c379a0000000000000000000000000000000000000000000000000000000008152600401610e97906119a8565b60405180910390fd5b8160369081610eaf9190611c05565b508060379081610ebf9190611c05565b505050565b600081519050919050565b600082825260208201905092915050565b60005b83811015610efe578082015181840152602081019050610ee3565b83811115610f0d576000848401525b50505050565b6000601f19601f8301169050919050565b6000610f2f82610ec4565b610f398185610ecf565b9350610f49818560208601610ee0565b610f5281610f13565b840191505092915050565b60006020820190508181036000830152610f778184610f24565b905092915050565b600080fd5b600073ffffffffffffffffffffffffffffffffffffffff82169050919050565b6000610faf82610f84565b9050919050565b610fbf81610fa4565b8114610fca57600080fd5b50565b600081359050610fdc81610fb6565b92915050565b6000819050919050565b610ff581610fe2565b811461100057600080fd5b50565b60008135905061101281610fec565b92915050565b6000806040838503121561102f5761102e610f7f565b5b600061103d85828601610fcd565b925050602061104e85828601611003565b9150509250929050565b60008115159050919050565b61106d81611058565b82525050565b60006020820190506110886000830184611064565b92915050565b61109781610fe2565b82525050565b60006020820190506110b2600083018461108e565b92915050565b6000806000606084860312156110d1576110d0610f7f565b5b60006110df86828701610fcd565b93505060206110f086828701610fcd565b925050604061110186828701611003565b9150509250925092565b600060ff82169050919050565b6111218161110b565b82525050565b600060208201905061113c6000830184611118565b92915050565b60006020828403121561115857611157610f7f565b5b600061116684828501610fcd565b91505092915050565b6000806040838503121561118657611185610f7f565b5b600061119485828601610fcd565b92505060206111a585828601610fcd565b9150509250929050565b7f4e487b7100000000000000000000000000000000000000000000000000000000600052602260045260246000fd5b600060028204905060018216806111f657607f821691505b602082108103611209576112086111af565b5b50919050565b7f4e487b7100000000000000000000000000000000000000000000000000000000600052601160045260246000fd5b600061124982610fe2565b915061125483610fe2565b9250827fffffffffffffffffffffffffffffffffffffffffffffffffffffffffffffffff038211156112895761128861120f565b5b828201905092915050565b7f496e697469616c697a61626c653a20636f6e747261637420697320616c72656160008201527f647920696e697469616c697a6564000000000000000000000000000000000000602082015250565b60006112f0602e83610ecf565b91506112fb82611294565b604082019050919050565b6000602082019050818103600083015261131f816112e3565b9050919050565b60008160011c9050919050565b6000808291508390505b600185111561137d578086048111156113595761135861120f565b5b60018516156113685780820291505b808102905061137685611326565b945061133d565b94509492505050565b6000826113965760019050611452565b816113a45760009050611452565b81600181146113ba57600281146113c4576113f3565b6001915050611452565b60ff8411156113d6576113d561120f565b5b8360020a9150848211156113ed576113ec61120f565b5b50611452565b5060208310610133831016604e8410600b84101617156114285782820a9050838111156114235761142261120f565b5b611452565b6114358484846001611333565b9250905081840481111561144c5761144b61120f565b5b81810290505b9392505050565b600061146482610fe2565b915061146f8361110b565b925061149c7fffffffffffffffffffffffffffffffffffffffffffffffffffffffffffffffff8484611386565b905092915050565b60006114af82610fe2565b91506114ba83610fe2565b9250817fffffffffffffffffffffffffffffffffffffffffffffffffffffffffffffffff04831182151516156114f3576114f261120f565b5b828202905092915050565b6000819050919050565b6000819050919050565b600061152d611528611523846114fe565b611508565b61110b565b9050919050565b61153d81611512565b82525050565b60006020820190506115586000830184611534565b92915050565b7f45524332303a2064656372656173656420616c6c6f77616e63652062656c6f7760008201527f207a65726f000000000000000000000000000000000000000000000000000000602082015250565b60006115ba602583610ecf565b91506115c58261155e565b604082019050919050565b600060208201905081810360008301526115e9816115ad565b9050919050565b7f45524332303a20617070726f76652066726f6d20746865207a65726f2061646460008201527f7265737300000000000000000000000000000000000000000000000000000000602082015250565b600061164c602483610ecf565b9150611657826115f0565b604082019050919050565b6000602082019050818103600083015261167b8161163f565b9050919050565b7f45524332303a20617070726f766520746f20746865207a65726f20616464726560008201527f7373000000000000000000000000000000000000000000000000000000000000602082015250565b60006116de602283610ecf565b91506116e982611682565b604082019050919050565b6000602082019050818103600083015261170d816116d1565b9050919050565b7f45524332303a20696e73756666696369656e7420616c6c6f77616e6365000000600082015250565b600061174a601d83610ecf565b915061175582611714565b602082019050919050565b600060208201905081810360008301526117798161173d565b9050919050565b7f45524332303a207472616e736665722066726f6d20746865207a65726f20616460008201527f6472657373000000000000000000000000000000000000000000000000000000602082015250565b60006117dc602583610ecf565b91506117e782611780565b604082019050919050565b6000602082019050818103600083015261180b816117cf565b9050919050565b7f45524332303a207472616e7366657220746f20746865207a65726f206164647260008201527f6573730000000000000000000000000000000000000000000000000000000000602082015250565b600061186e602383610ecf565b915061187982611812565b604082019050919050565b6000602082019050818103600083015261189d81611861565b9050919050565b7f45524332303a207472616e7366657220616d6f756e742065786365656473206260008201527f616c616e63650000000000000000000000000000000000000000000000000000602082015250565b6000611900602683610ecf565b915061190b826118a4565b604082019050919050565b6000602082019050818103600083015261192f816118f3565b9050919050565b7f496e697469616c697a61626c653a20636f6e7472616374206973206e6f74206960008201527f6e697469616c697a696e67000000000000000000000000000000000000000000602082015250565b6000611992602b83610ecf565b915061199d82611936565b604082019050919050565b600060208201905081810360008301526119c181611985565b9050919050565b7f45524332303a206d696e7420746f20746865207a65726f206164647265737300600082015250565b60006119fe601f83610ecf565b9150611a09826119c8565b602082019050919050565b60006020820190508181036000830152611a2d816119f1565b9050919050565b7f4e487b7100000000000000000000000000000000000000000000000000000000600052604160045260246000fd5b60008190508160005260206000209050919050565b60006020601f8301049050919050565b600082821b905092915050565b600060088302611ac57fffffffffffffffffffffffffffffffffffffffffffffffffffffffffffffffff82611a88565b611acf8683611a88565b95508019841693508086168417925050509392505050565b6000611b02611afd611af884610fe2565b611508565b610fe2565b9050919050565b6000819050919050565b611b1c83611ae7565b611b30611b2882611b09565b848454611a95565b825550505050565b600090565b611b45611b38565b611b50818484611b13565b505050565b5b81811015611b7457611b69600082611b3d565b600181019050611b56565b5050565b601f821115611bb957611b8a81611a63565b611b9384611a78565b81016020851015611ba2578190505b611bb6611bae85611a78565b830182611b55565b50505b505050565b600082821c905092915050565b6000611bdc60001984600802611bbe565b1980831691505092915050565b6000611bf58383611bcb565b9150826002028217905092915050565b611c0e82610ec4565b67ffffffffffffffff811115611c2757611c26611a34565b5b611c3182546111de565b611c3c828285611b78565b600060209050601f831160018114611c6f5760008415611c5d578287015190505b611c678582611be9565b865550611ccf565b601f198416611c7d86611a63565b60005b82811015611ca557848901518255600182019150602085019450602081019050611c80565b86831015611cc25784890151611cbe601f891682611bcb565b8355505b6001600288020188555050505b50505050505056fea2646970667358221220604d95e39e5c36218c17c1c57df82581fcfc04a12c5efe8f063ca220769fa8f064736f6c634300080f0033",
  "immutableReferences": {},
  "source": "// SPDX-License-Identifier: MIT\npragma solidity ^0.8.15;\n\nimport \"@openzeppelin/contracts-upgradeable/token/ERC20/ERC20Upgradeable.sol\";\nimport \"@openzeppelin/contracts-upgradeable/proxy/utils/Initializable.sol\";\n\ncontract MyTokenTransparent is Initializable, ERC20Upgradeable {\n    /// @custom:oz-upgrades-unsafe-allow constructor\n    constructor() {\n        _disableInitializers();\n    }\n\n    function initialize() initializer public {\n        __ERC20_init(\"MyTokenTransparent\", \"MTKT\");\n\n        _mint(msg.sender, 100 * 10 ** decimals());\n    }\n}",
  "sourcePath": "/Users/linzhiyun/Desktop/blockchain_projects/my-token/contracts/MyTokenTransparent.sol",
  "compiler": {
    "name": "solc",
    "version": "0.8.15+commit.e14f2714.Emscripten.clang"
  },
  "schemaVersion": "3.4.8",
  "updatedAt": "2022-07-28T07:44:15.122Z",
  "networkType": "ethereum",
  "devdoc": {
    "kind": "dev",
    "methods": {
      "allowance(address,address)": {
        "details": "See {IERC20-allowance}."
      },
      "approve(address,uint256)": {
        "details": "See {IERC20-approve}. NOTE: If `amount` is the maximum `uint256`, the allowance is not updated on `transferFrom`. This is semantically equivalent to an infinite approval. Requirements: - `spender` cannot be the zero address."
      },
      "balanceOf(address)": {
        "details": "See {IERC20-balanceOf}."
      },
      "constructor": {
        "custom:oz-upgrades-unsafe-allow": "constructor"
      },
      "decimals()": {
        "details": "Returns the number of decimals used to get its user representation. For example, if `decimals` equals `2`, a balance of `505` tokens should be displayed to a user as `5.05` (`505 / 10 ** 2`). Tokens usually opt for a value of 18, imitating the relationship between Ether and Wei. This is the value {ERC20} uses, unless this function is overridden; NOTE: This information is only used for _display_ purposes: it in no way affects any of the arithmetic of the contract, including {IERC20-balanceOf} and {IERC20-transfer}."
      },
      "decreaseAllowance(address,uint256)": {
        "details": "Atomically decreases the allowance granted to `spender` by the caller. This is an alternative to {approve} that can be used as a mitigation for problems described in {IERC20-approve}. Emits an {Approval} event indicating the updated allowance. Requirements: - `spender` cannot be the zero address. - `spender` must have allowance for the caller of at least `subtractedValue`."
      },
      "increaseAllowance(address,uint256)": {
        "details": "Atomically increases the allowance granted to `spender` by the caller. This is an alternative to {approve} that can be used as a mitigation for problems described in {IERC20-approve}. Emits an {Approval} event indicating the updated allowance. Requirements: - `spender` cannot be the zero address."
      },
      "name()": {
        "details": "Returns the name of the token."
      },
      "symbol()": {
        "details": "Returns the symbol of the token, usually a shorter version of the name."
      },
      "totalSupply()": {
        "details": "See {IERC20-totalSupply}."
      },
      "transfer(address,uint256)": {
        "details": "See {IERC20-transfer}. Requirements: - `to` cannot be the zero address. - the caller must have a balance of at least `amount`."
      },
      "transferFrom(address,address,uint256)": {
        "details": "See {IERC20-transferFrom}. Emits an {Approval} event indicating the updated allowance. This is not required by the EIP. See the note at the beginning of {ERC20}. NOTE: Does not update the allowance if the current allowance is the maximum `uint256`. Requirements: - `from` and `to` cannot be the zero address. - `from` must have a balance of at least `amount`. - the caller must have allowance for ``from``'s tokens of at least `amount`."
      }
    },
    "version": 1
  },
  "userdoc": {
    "kind": "user",
    "methods": {},
    "version": 1
  }
}