{
  "contractName": "MyTokenV2",
  "abi": [
    {
      "anonymous": false,
      "inputs": [
        {
          "indexed": false,
          "internalType": "address",
          "name": "previousAdmin",
          "type": "address"
        },
        {
          "indexed": false,
          "internalType": "address",
          "name": "newAdmin",
          "type": "address"
        }
      ],
      "name": "AdminChanged",
      "type": "event"
    },
    {
      "anonymous": false,
      "inputs": [
        {
          "indexed": true,
          "internalType": "address",
          "name": "owner",
          "type": "address"
        },
        {
          "indexed": true,
          "internalType": "address",
          "name": "spender",
          "type": "address"
        },
        {
          "indexed": false,
          "internalType": "uint256",
          "name": "value",
          "type": "uint256"
        }
      ],
      "name": "Approval",
      "type": "event"
    },
    {
      "anonymous": false,
      "inputs": [
        {
          "indexed": true,
          "internalType": "address",
          "name": "beacon",
          "type": "address"
        }
      ],
      "name": "BeaconUpgraded",
      "type": "event"
    },
    {
      "anonymous": false,
      "inputs": [
        {
          "indexed": false,
          "internalType": "uint8",
          "name": "version",
          "type": "uint8"
        }
      ],
      "name": "Initialized",
      "type": "event"
    },
    {
      "anonymous": false,
      "inputs": [
        {
          "indexed": true,
          "internalType": "address",
          "name": "previousOwner",
          "type": "address"
        },
        {
          "indexed": true,
          "internalType": "address",
          "name": "newOwner",
          "type": "address"
        }
      ],
      "name": "OwnershipTransferred",
      "type": "event"
    },
    {
      "anonymous": false,
      "inputs": [
        {
          "indexed": true,
          "internalType": "address",
          "name": "from",
          "type": "address"
        },
        {
          "indexed": true,
          "internalType": "address",
          "name": "to",
          "type": "address"
        },
        {
          "indexed": false,
          "internalType": "uint256",
          "name": "value",
          "type": "uint256"
        }
      ],
      "name": "Transfer",
      "type": "event"
    },
    {
      "anonymous": false,
      "inputs": [
        {
          "indexed": true,
          "internalType": "address",
          "name": "implementation",
          "type": "address"
        }
      ],
      "name": "Upgraded",
      "type": "event"
    },
    {
      "inputs": [
        {
          "internalType": "address",
          "name": "owner",
          "type": "address"
        },
        {
          "internalType": "address",
          "name": "spender",
          "type": "address"
        }
      ],
      "name": "allowance",
      "outputs": [
        {
          "internalType": "uint256",
          "name": "",
          "type": "uint256"
        }
      ],
      "stateMutability": "view",
      "type": "function"
    },
    {
      "inputs": [
        {
          "internalType": "address",
          "name": "spender",
          "type": "address"
        },
        {
          "internalType": "uint256",
          "name": "amount",
          "type": "uint256"
        }
      ],
      "name": "approve",
      "outputs": [
        {
          "internalType": "bool",
          "name": "",
          "type": "bool"
        }
      ],
      "stateMutability": "nonpayable",
      "type": "function"
    },
    {
      "inputs": [
        {
          "internalType": "address",
          "name": "account",
          "type": "address"
        }
      ],
      "name": "balanceOf",
      "outputs": [
        {
          "internalType": "uint256",
          "name": "",
          "type": "uint256"
        }
      ],
      "stateMutability": "view",
      "type": "function"
    },
    {
      "inputs": [],
      "name": "decimals",
      "outputs": [
        {
          "internalType": "uint8",
          "name": "",
          "type": "uint8"
        }
      ],
      "stateMutability": "view",
      "type": "function"
    },
    {
      "inputs": [
        {
          "internalType": "address",
          "name": "spender",
          "type": "address"
        },
        {
          "internalType": "uint256",
          "name": "subtractedValue",
          "type": "uint256"
        }
      ],
      "name": "decreaseAllowance",
      "outputs": [
        {
          "internalType": "bool",
          "name": "",
          "type": "bool"
        }
      ],
      "stateMutability": "nonpayable",
      "type": "function"
    },
    {
      "inputs": [
        {
          "internalType": "address",
          "name": "spender",
          "type": "address"
        },
        {
          "internalType": "uint256",
          "name": "addedValue",
          "type": "uint256"
        }
      ],
      "name": "increaseAllowance",
      "outputs": [
        {
          "internalType": "bool",
          "name": "",
          "type": "bool"
        }
      ],
      "stateMutability": "nonpayable",
      "type": "function"
    },
    {
      "inputs": [],
      "name": "initialize",
      "outputs": [],
      "stateMutability": "nonpayable",
      "type": "function"
    },
    {
      "inputs": [],
      "name": "name",
      "outputs": [
        {
          "internalType": "string",
          "name": "",
          "type": "string"
        }
      ],
      "stateMutability": "view",
      "type": "function"
    },
    {
      "inputs": [],
      "name": "owner",
      "outputs": [
        {
          "internalType": "address",
          "name": "",
          "type": "address"
        }
      ],
      "stateMutability": "view",
      "type": "function"
    },
    {
      "inputs": [],
      "name": "proxiableUUID",
      "outputs": [
        {
          "internalType": "bytes32",
          "name": "",
          "type": "bytes32"
        }
      ],
      "stateMutability": "view",
      "type": "function"
    },
    {
      "inputs": [],
      "name": "renounceOwnership",
      "outputs": [],
      "stateMutability": "nonpayable",
      "type": "function"
    },
    {
      "inputs": [],
      "name": "symbol",
      "outputs": [
        {
          "internalType": "string",
          "name": "",
          "type": "string"
        }
      ],
      "stateMutability": "view",
      "type": "function"
    },
    {
      "inputs": [],
      "name": "totalSupply",
      "outputs": [
        {
          "internalType": "uint256",
          "name": "",
          "type": "uint256"
        }
      ],
      "stateMutability": "view",
      "type": "function"
    },
    {
      "inputs": [
        {
          "internalType": "address",
          "name": "to",
          "type": "address"
        },
        {
          "internalType": "uint256",
          "name": "amount",
          "type": "uint256"
        }
      ],
      "name": "transfer",
      "outputs": [
        {
          "internalType": "bool",
          "name": "",
          "type": "bool"
        }
      ],
      "stateMutability": "nonpayable",
      "type": "function"
    },
    {
      "inputs": [
        {
          "internalType": "address",
          "name": "from",
          "type": "address"
        },
        {
          "internalType": "address",
          "name": "to",
          "type": "address"
        },
        {
          "internalType": "uint256",
          "name": "amount",
          "type": "uint256"
        }
      ],
      "name": "transferFrom",
      "outputs": [
        {
          "internalType": "bool",
          "name": "",
          "type": "bool"
        }
      ],
      "stateMutability": "nonpayable",
      "type": "function"
    },
    {
      "inputs": [
        {
          "internalType": "address",
          "name": "newOwner",
          "type": "address"
        }
      ],
      "name": "transferOwnership",
      "outputs": [],
      "stateMutability": "nonpayable",
      "type": "function"
    },
    {
      "inputs": [
        {
          "internalType": "address",
          "name": "newImplementation",
          "type": "address"
        }
      ],
      "name": "upgradeTo",
      "outputs": [],
      "stateMutability": "nonpayable",
      "type": "function"
    },
    {
      "inputs": [
        {
          "internalType": "address",
          "name": "newImplementation",
          "type": "address"
        },
        {
          "internalType": "bytes",
          "name": "data",
          "type": "bytes"
        }
      ],
      "name": "upgradeToAndCall",
      "outputs": [],
      "stateMutability": "payable",
      "type": "function"
    },
    {
      "inputs": [],
      "name": "hello",
      "outputs": [
        {
          "internalType": "string",
          "name": "",
          "type": "string"
        }
      ],
      "stateMutability": "pure",
      "type": "function"
    }
  ],
  "bytecode": "0x60a06040523073ffffffffffffffffffffffffffffffffffffffff1660809073ffffffffffffffffffffffffffffffffffffffff168152503480156200004457600080fd5b50620000556200005b60201b60201c565b62000206565b600060019054906101000a900460ff1615620000ae576040517f08c379a0000000000000000000000000000000000000000000000000000000008152600401620000a590620001a9565b60405180910390fd5b60ff801660008054906101000a900460ff1660ff161015620001205760ff6000806101000a81548160ff021916908360ff1602179055507f7f26b83ff96e1f2b6a682f133852f6798a09c465da95921460cefb384740249860ff604051620001179190620001e9565b60405180910390a15b565b600082825260208201905092915050565b7f496e697469616c697a61626c653a20636f6e747261637420697320696e69746960008201527f616c697a696e6700000000000000000000000000000000000000000000000000602082015250565b60006200019160278362000122565b91506200019e8262000133565b604082019050919050565b60006020820190508181036000830152620001c48162000182565b9050919050565b600060ff82169050919050565b620001e381620001cb565b82525050565b6000602082019050620002006000830184620001d8565b92915050565b6080516131f56200023e600039600081816105c301528181610651015281816107820152818161081001526108c001526131f56000f3fe6080604052600436106101145760003560e01c806352d1902d116100a057806395d89b411161006457806395d89b4114610382578063a457c2d7146103ad578063a9059cbb146103ea578063dd62ed3e14610427578063f2fde38b1461046457610114565b806352d1902d146102c157806370a08231146102ec578063715018a6146103295780638129fc1c146103405780638da5cb5b1461035757610114565b806323b872dd116100e757806323b872dd146101d7578063313ce567146102145780633659cfe61461023f57806339509351146102685780634f1ef286146102a557610114565b806306fdde0314610119578063095ea7b31461014457806318160ddd1461018157806319ff1d21146101ac575b600080fd5b34801561012557600080fd5b5061012e61048d565b60405161013b9190611c9c565b60405180910390f35b34801561015057600080fd5b5061016b60048036038101906101669190611d66565b61051f565b6040516101789190611dc1565b60405180910390f35b34801561018d57600080fd5b50610196610542565b6040516101a39190611deb565b60405180910390f35b3480156101b857600080fd5b506101c161054c565b6040516101ce9190611c9c565b60405180910390f35b3480156101e357600080fd5b506101fe60048036038101906101f99190611e06565b610589565b60405161020b9190611dc1565b60405180910390f35b34801561022057600080fd5b506102296105b8565b6040516102369190611e75565b60405180910390f35b34801561024b57600080fd5b5061026660048036038101906102619190611e90565b6105c1565b005b34801561027457600080fd5b5061028f600480360381019061028a9190611d66565b610749565b60405161029c9190611dc1565b60405180910390f35b6102bf60048036038101906102ba9190611ff2565b610780565b005b3480156102cd57600080fd5b506102d66108bc565b6040516102e39190612067565b60405180910390f35b3480156102f857600080fd5b50610313600480360381019061030e9190611e90565b610975565b6040516103209190611deb565b60405180910390f35b34801561033557600080fd5b5061033e6109be565b005b34801561034c57600080fd5b506103556109d2565b005b34801561036357600080fd5b5061036c610bb5565b6040516103799190612091565b60405180910390f35b34801561038e57600080fd5b50610397610bdf565b6040516103a49190611c9c565b60405180910390f35b3480156103b957600080fd5b506103d460048036038101906103cf9190611d66565b610c71565b6040516103e19190611dc1565b60405180910390f35b3480156103f657600080fd5b50610411600480360381019061040c9190611d66565b610ce8565b60405161041e9190611dc1565b60405180910390f35b34801561043357600080fd5b5061044e600480360381019061044991906120ac565b610d0b565b60405161045b9190611deb565b60405180910390f35b34801561047057600080fd5b5061048b60048036038101906104869190611e90565b610d92565b005b60606036805461049c9061211b565b80601f01602080910402602001604051908101604052809291908181526020018280546104c89061211b565b80156105155780601f106104ea57610100808354040283529160200191610515565b820191906000526020600020905b8154815290600101906020018083116104f857829003601f168201915b5050505050905090565b60008061052a610e15565b9050610537818585610e1d565b600191505092915050565b6000603554905090565b60606040518060400160405280600581526020017f68656c6c6f000000000000000000000000000000000000000000000000000000815250905090565b600080610594610e15565b90506105a1858285610fe6565b6105ac858585611072565b60019150509392505050565b60006012905090565b7f000000000000000000000000000000000000000000000000000000000000000073ffffffffffffffffffffffffffffffffffffffff163073ffffffffffffffffffffffffffffffffffffffff160361064f576040517f08c379a0000000000000000000000000000000000000000000000000000000008152600401610646906121be565b60405180910390fd5b7f000000000000000000000000000000000000000000000000000000000000000073ffffffffffffffffffffffffffffffffffffffff1661068e6112f4565b73ffffffffffffffffffffffffffffffffffffffff16146106e4576040517f08c379a00000000000000000000000000000000000000000000000000000000081526004016106db90612250565b60405180910390fd5b6106ed8161134b565b61074681600067ffffffffffffffff81111561070c5761070b611ec7565b5b6040519080825280601f01601f19166020018201604052801561073e5781602001600182028036833780820191505090505b506000611356565b50565b600080610754610e15565b90506107758185856107668589610d0b565b610770919061229f565b610e1d565b600191505092915050565b7f000000000000000000000000000000000000000000000000000000000000000073ffffffffffffffffffffffffffffffffffffffff163073ffffffffffffffffffffffffffffffffffffffff160361080e576040517f08c379a0000000000000000000000000000000000000000000000000000000008152600401610805906121be565b60405180910390fd5b7f000000000000000000000000000000000000000000000000000000000000000073ffffffffffffffffffffffffffffffffffffffff1661084d6112f4565b73ffffffffffffffffffffffffffffffffffffffff16146108a3576040517f08c379a000000000000000000000000000000000000000000000000000000000815260040161089a90612250565b60405180910390fd5b6108ac8261134b565b6108b882826001611356565b5050565b60007f000000000000000000000000000000000000000000000000000000000000000073ffffffffffffffffffffffffffffffffffffffff163073ffffffffffffffffffffffffffffffffffffffff161461094c576040517f08c379a000000000000000000000000000000000000000000000000000000000815260040161094390612367565b60405180910390fd5b7f360894a13ba1a3210667c828492db98dca3e2076cc3735a920a3ca505d382bbc60001b905090565b6000603360008373ffffffffffffffffffffffffffffffffffffffff1673ffffffffffffffffffffffffffffffffffffffff168152602001908152602001600020549050919050565b6109c66114c4565b6109d06000611542565b565b60008060019054906101000a900460ff16159050808015610a035750600160008054906101000a900460ff1660ff16105b80610a305750610a1230611608565b158015610a2f5750600160008054906101000a900460ff1660ff16145b5b610a6f576040517f08c379a0000000000000000000000000000000000000000000000000000000008152600401610a66906123f9565b60405180910390fd5b60016000806101000a81548160ff021916908360ff1602179055508015610aac576001600060016101000a81548160ff0219169083151502179055505b610b206040518060400160405280600781526020017f4d79546f6b656e000000000000000000000000000000000000000000000000008152506040518060400160405280600381526020017f4d544b000000000000000000000000000000000000000000000000000000000081525061162b565b610b28611688565b610b306116e1565b610b5933610b3c6105b8565b600a610b48919061254c565b6064610b549190612597565b611732565b8015610bb25760008060016101000a81548160ff0219169083151502179055507f7f26b83ff96e1f2b6a682f133852f6798a09c465da95921460cefb38474024986001604051610ba99190612636565b60405180910390a15b50565b6000606560009054906101000a900473ffffffffffffffffffffffffffffffffffffffff16905090565b606060378054610bee9061211b565b80601f0160208091040260200160405190810160405280929190818152602001828054610c1a9061211b565b8015610c675780601f10610c3c57610100808354040283529160200191610c67565b820191906000526020600020905b815481529060010190602001808311610c4a57829003601f168201915b5050505050905090565b600080610c7c610e15565b90506000610c8a8286610d0b565b905083811015610ccf576040517f08c379a0000000000000000000000000000000000000000000000000000000008152600401610cc6906126c3565b60405180910390fd5b610cdc8286868403610e1d565b60019250505092915050565b600080610cf3610e15565b9050610d00818585611072565b600191505092915050565b6000603460008473ffffffffffffffffffffffffffffffffffffffff1673ffffffffffffffffffffffffffffffffffffffff16815260200190815260200160002060008373ffffffffffffffffffffffffffffffffffffffff1673ffffffffffffffffffffffffffffffffffffffff16815260200190815260200160002054905092915050565b610d9a6114c4565b600073ffffffffffffffffffffffffffffffffffffffff168173ffffffffffffffffffffffffffffffffffffffff1603610e09576040517f08c379a0000000000000000000000000000000000000000000000000000000008152600401610e0090612755565b60405180910390fd5b610e1281611542565b50565b600033905090565b600073ffffffffffffffffffffffffffffffffffffffff168373ffffffffffffffffffffffffffffffffffffffff1603610e8c576040517f08c379a0000000000000000000000000000000000000000000000000000000008152600401610e83906127e7565b60405180910390fd5b600073ffffffffffffffffffffffffffffffffffffffff168273ffffffffffffffffffffffffffffffffffffffff1603610efb576040517f08c379a0000000000000000000000000000000000000000000000000000000008152600401610ef290612879565b60405180910390fd5b80603460008573ffffffffffffffffffffffffffffffffffffffff1673ffffffffffffffffffffffffffffffffffffffff16815260200190815260200160002060008473ffffffffffffffffffffffffffffffffffffffff1673ffffffffffffffffffffffffffffffffffffffff168152602001908152602001600020819055508173ffffffffffffffffffffffffffffffffffffffff168373ffffffffffffffffffffffffffffffffffffffff167f8c5be1e5ebec7d5bd14f71427d1e84f3dd0314c0f7b2291e5b200ac8c7c3b92583604051610fd99190611deb565b60405180910390a3505050565b6000610ff28484610d0b565b90507fffffffffffffffffffffffffffffffffffffffffffffffffffffffffffffffff811461106c578181101561105e576040517f08c379a0000000000000000000000000000000000000000000000000000000008152600401611055906128e5565b60405180910390fd5b61106b8484848403610e1d565b5b50505050565b600073ffffffffffffffffffffffffffffffffffffffff168373ffffffffffffffffffffffffffffffffffffffff16036110e1576040517f08c379a00000000000000000000000000000000000000000000000000000000081526004016110d890612977565b60405180910390fd5b600073ffffffffffffffffffffffffffffffffffffffff168273ffffffffffffffffffffffffffffffffffffffff1603611150576040517f08c379a000000000000000000000000000000000000000000000000000000000815260040161114790612a09565b60405180910390fd5b61115b838383611892565b6000603360008573ffffffffffffffffffffffffffffffffffffffff1673ffffffffffffffffffffffffffffffffffffffff168152602001908152602001600020549050818110156111e2576040517f08c379a00000000000000000000000000000000000000000000000000000000081526004016111d990612a9b565b60405180910390fd5b818103603360008673ffffffffffffffffffffffffffffffffffffffff1673ffffffffffffffffffffffffffffffffffffffff1681526020019081526020016000208190555081603360008573ffffffffffffffffffffffffffffffffffffffff1673ffffffffffffffffffffffffffffffffffffffff1681526020019081526020016000206000828254611277919061229f565b925050819055508273ffffffffffffffffffffffffffffffffffffffff168473ffffffffffffffffffffffffffffffffffffffff167fddf252ad1be2c89b69c2b068fc378daa952ba7f163c4a11628f55a4df523b3ef846040516112db9190611deb565b60405180910390a36112ee848484611897565b50505050565b60006113227f360894a13ba1a3210667c828492db98dca3e2076cc3735a920a3ca505d382bbc60001b61189c565b60000160009054906101000a900473ffffffffffffffffffffffffffffffffffffffff16905090565b6113536114c4565b50565b6113827f4910fdfa16fed3260ed0e7147f7cc6da11a60208b5b9406d12a635614ffd914360001b6118a6565b60000160009054906101000a900460ff16156113a6576113a1836118b0565b6114bf565b8273ffffffffffffffffffffffffffffffffffffffff166352d1902d6040518163ffffffff1660e01b8152600401602060405180830381865afa92505050801561140e57506040513d601f19601f8201168201806040525081019061140b9190612ae7565b60015b61144d576040517f08c379a000000000000000000000000000000000000000000000000000000000815260040161144490612b86565b60405180910390fd5b7f360894a13ba1a3210667c828492db98dca3e2076cc3735a920a3ca505d382bbc60001b81146114b2576040517f08c379a00000000000000000000000000000000000000000000000000000000081526004016114a990612c18565b60405180910390fd5b506114be838383611969565b5b505050565b6114cc610e15565b73ffffffffffffffffffffffffffffffffffffffff166114ea610bb5565b73ffffffffffffffffffffffffffffffffffffffff1614611540576040517f08c379a000000000000000000000000000000000000000000000000000000000815260040161153790612c84565b60405180910390fd5b565b6000606560009054906101000a900473ffffffffffffffffffffffffffffffffffffffff16905081606560006101000a81548173ffffffffffffffffffffffffffffffffffffffff021916908373ffffffffffffffffffffffffffffffffffffffff1602179055508173ffffffffffffffffffffffffffffffffffffffff168173ffffffffffffffffffffffffffffffffffffffff167f8be0079c531659141344cd1fd0a4f28419497f9722a3daafe3b4186f6b6457e060405160405180910390a35050565b6000808273ffffffffffffffffffffffffffffffffffffffff163b119050919050565b600060019054906101000a900460ff1661167a576040517f08c379a000000000000000000000000000000000000000000000000000000000815260040161167190612d16565b60405180910390fd5b6116848282611995565b5050565b600060019054906101000a900460ff166116d7576040517f08c379a00000000000000000000000000000000000000000000000000000000081526004016116ce90612d16565b60405180910390fd5b6116df611a08565b565b600060019054906101000a900460ff16611730576040517f08c379a000000000000000000000000000000000000000000000000000000000815260040161172790612d16565b60405180910390fd5b565b600073ffffffffffffffffffffffffffffffffffffffff168273ffffffffffffffffffffffffffffffffffffffff16036117a1576040517f08c379a000000000000000000000000000000000000000000000000000000000815260040161179890612d82565b60405180910390fd5b6117ad60008383611892565b80603560008282546117bf919061229f565b9250508190555080603360008473ffffffffffffffffffffffffffffffffffffffff1673ffffffffffffffffffffffffffffffffffffffff1681526020019081526020016000206000828254611815919061229f565b925050819055508173ffffffffffffffffffffffffffffffffffffffff16600073ffffffffffffffffffffffffffffffffffffffff167fddf252ad1be2c89b69c2b068fc378daa952ba7f163c4a11628f55a4df523b3ef8360405161187a9190611deb565b60405180910390a361188e60008383611897565b5050565b505050565b505050565b6000819050919050565b6000819050919050565b6118b981611608565b6118f8576040517f08c379a00000000000000000000000000000000000000000000000000000000081526004016118ef90612e14565b60405180910390fd5b806119257f360894a13ba1a3210667c828492db98dca3e2076cc3735a920a3ca505d382bbc60001b61189c565b60000160006101000a81548173ffffffffffffffffffffffffffffffffffffffff021916908373ffffffffffffffffffffffffffffffffffffffff16021790555050565b61197283611a69565b60008251118061197f5750805b156119905761198e8383611ab8565b505b505050565b600060019054906101000a900460ff166119e4576040517f08c379a00000000000000000000000000000000000000000000000000000000081526004016119db90612d16565b60405180910390fd5b81603690816119f39190612fd6565b508060379081611a039190612fd6565b505050565b600060019054906101000a900460ff16611a57576040517f08c379a0000000000000000000000000000000000000000000000000000000008152600401611a4e90612d16565b60405180910390fd5b611a67611a62610e15565b611542565b565b611a72816118b0565b8073ffffffffffffffffffffffffffffffffffffffff167fbc7cd75a20ee27fd9adebab32041f755214dbc6bffa90cc0225b39da2e5c2d3b60405160405180910390a250565b6060611ac383611608565b611b02576040517f08c379a0000000000000000000000000000000000000000000000000000000008152600401611af99061311a565b60405180910390fd5b6000808473ffffffffffffffffffffffffffffffffffffffff1684604051611b2a9190613181565b600060405180830381855af49150503d8060008114611b65576040519150601f19603f3d011682016040523d82523d6000602084013e611b6a565b606091505b5091509150611b92828260405180606001604052806027815260200161319960279139611b9c565b9250505092915050565b60608315611bac57829050611bfc565b600083511115611bbf5782518084602001fd5b816040517f08c379a0000000000000000000000000000000000000000000000000000000008152600401611bf39190611c9c565b60405180910390fd5b9392505050565b600081519050919050565b600082825260208201905092915050565b60005b83811015611c3d578082015181840152602081019050611c22565b83811115611c4c576000848401525b50505050565b6000601f19601f8301169050919050565b6000611c6e82611c03565b611c788185611c0e565b9350611c88818560208601611c1f565b611c9181611c52565b840191505092915050565b60006020820190508181036000830152611cb68184611c63565b905092915050565b6000604051905090565b600080fd5b600080fd5b600073ffffffffffffffffffffffffffffffffffffffff82169050919050565b6000611cfd82611cd2565b9050919050565b611d0d81611cf2565b8114611d1857600080fd5b50565b600081359050611d2a81611d04565b92915050565b6000819050919050565b611d4381611d30565b8114611d4e57600080fd5b50565b600081359050611d6081611d3a565b92915050565b60008060408385031215611d7d57611d7c611cc8565b5b6000611d8b85828601611d1b565b9250506020611d9c85828601611d51565b9150509250929050565b60008115159050919050565b611dbb81611da6565b82525050565b6000602082019050611dd66000830184611db2565b92915050565b611de581611d30565b82525050565b6000602082019050611e006000830184611ddc565b92915050565b600080600060608486031215611e1f57611e1e611cc8565b5b6000611e2d86828701611d1b565b9350506020611e3e86828701611d1b565b9250506040611e4f86828701611d51565b9150509250925092565b600060ff82169050919050565b611e6f81611e59565b82525050565b6000602082019050611e8a6000830184611e66565b92915050565b600060208284031215611ea657611ea5611cc8565b5b6000611eb484828501611d1b565b91505092915050565b600080fd5b600080fd5b7f4e487b7100000000000000000000000000000000000000000000000000000000600052604160045260246000fd5b611eff82611c52565b810181811067ffffffffffffffff82111715611f1e57611f1d611ec7565b5b80604052505050565b6000611f31611cbe565b9050611f3d8282611ef6565b919050565b600067ffffffffffffffff821115611f5d57611f5c611ec7565b5b611f6682611c52565b9050602081019050919050565b82818337600083830152505050565b6000611f95611f9084611f42565b611f27565b905082815260208101848484011115611fb157611fb0611ec2565b5b611fbc848285611f73565b509392505050565b600082601f830112611fd957611fd8611ebd565b5b8135611fe9848260208601611f82565b91505092915050565b6000806040838503121561200957612008611cc8565b5b600061201785828601611d1b565b925050602083013567ffffffffffffffff81111561203857612037611ccd565b5b61204485828601611fc4565b9150509250929050565b6000819050919050565b6120618161204e565b82525050565b600060208201905061207c6000830184612058565b92915050565b61208b81611cf2565b82525050565b60006020820190506120a66000830184612082565b92915050565b600080604083850312156120c3576120c2611cc8565b5b60006120d185828601611d1b565b92505060206120e285828601611d1b565b9150509250929050565b7f4e487b7100000000000000000000000000000000000000000000000000000000600052602260045260246000fd5b6000600282049050600182168061213357607f821691505b602082108103612146576121456120ec565b5b50919050565b7f46756e6374696f6e206d7573742062652063616c6c6564207468726f7567682060008201527f64656c656761746563616c6c0000000000000000000000000000000000000000602082015250565b60006121a8602c83611c0e565b91506121b38261214c565b604082019050919050565b600060208201905081810360008301526121d78161219b565b9050919050565b7f46756e6374696f6e206d7573742062652063616c6c6564207468726f7567682060008201527f6163746976652070726f78790000000000000000000000000000000000000000602082015250565b600061223a602c83611c0e565b9150612245826121de565b604082019050919050565b600060208201905081810360008301526122698161222d565b9050919050565b7f4e487b7100000000000000000000000000000000000000000000000000000000600052601160045260246000fd5b60006122aa82611d30565b91506122b583611d30565b9250827fffffffffffffffffffffffffffffffffffffffffffffffffffffffffffffffff038211156122ea576122e9612270565b5b828201905092915050565b7f555550535570677261646561626c653a206d757374206e6f742062652063616c60008201527f6c6564207468726f7567682064656c656761746563616c6c0000000000000000602082015250565b6000612351603883611c0e565b915061235c826122f5565b604082019050919050565b6000602082019050818103600083015261238081612344565b9050919050565b7f496e697469616c697a61626c653a20636f6e747261637420697320616c72656160008201527f647920696e697469616c697a6564000000000000000000000000000000000000602082015250565b60006123e3602e83611c0e565b91506123ee82612387565b604082019050919050565b60006020820190508181036000830152612412816123d6565b9050919050565b60008160011c9050919050565b6000808291508390505b60018511156124705780860481111561244c5761244b612270565b5b600185161561245b5780820291505b808102905061246985612419565b9450612430565b94509492505050565b6000826124895760019050612545565b816124975760009050612545565b81600181146124ad57600281146124b7576124e6565b6001915050612545565b60ff8411156124c9576124c8612270565b5b8360020a9150848211156124e0576124df612270565b5b50612545565b5060208310610133831016604e8410600b841016171561251b5782820a90508381111561251657612515612270565b5b612545565b6125288484846001612426565b9250905081840481111561253f5761253e612270565b5b81810290505b9392505050565b600061255782611d30565b915061256283611e59565b925061258f7fffffffffffffffffffffffffffffffffffffffffffffffffffffffffffffffff8484612479565b905092915050565b60006125a282611d30565b91506125ad83611d30565b9250817fffffffffffffffffffffffffffffffffffffffffffffffffffffffffffffffff04831182151516156125e6576125e5612270565b5b828202905092915050565b6000819050919050565b6000819050919050565b600061262061261b612616846125f1565b6125fb565b611e59565b9050919050565b61263081612605565b82525050565b600060208201905061264b6000830184612627565b92915050565b7f45524332303a2064656372656173656420616c6c6f77616e63652062656c6f7760008201527f207a65726f000000000000000000000000000000000000000000000000000000602082015250565b60006126ad602583611c0e565b91506126b882612651565b604082019050919050565b600060208201905081810360008301526126dc816126a0565b9050919050565b7f4f776e61626c653a206e6577206f776e657220697320746865207a65726f206160008201527f6464726573730000000000000000000000000000000000000000000000000000602082015250565b600061273f602683611c0e565b915061274a826126e3565b604082019050919050565b6000602082019050818103600083015261276e81612732565b9050919050565b7f45524332303a20617070726f76652066726f6d20746865207a65726f2061646460008201527f7265737300000000000000000000000000000000000000000000000000000000602082015250565b60006127d1602483611c0e565b91506127dc82612775565b604082019050919050565b60006020820190508181036000830152612800816127c4565b9050919050565b7f45524332303a20617070726f766520746f20746865207a65726f20616464726560008201527f7373000000000000000000000000000000000000000000000000000000000000602082015250565b6000612863602283611c0e565b915061286e82612807565b604082019050919050565b6000602082019050818103600083015261289281612856565b9050919050565b7f45524332303a20696e73756666696369656e7420616c6c6f77616e6365000000600082015250565b60006128cf601d83611c0e565b91506128da82612899565b602082019050919050565b600060208201905081810360008301526128fe816128c2565b9050919050565b7f45524332303a207472616e736665722066726f6d20746865207a65726f20616460008201527f6472657373000000000000000000000000000000000000000000000000000000602082015250565b6000612961602583611c0e565b915061296c82612905565b604082019050919050565b6000602082019050818103600083015261299081612954565b9050919050565b7f45524332303a207472616e7366657220746f20746865207a65726f206164647260008201527f6573730000000000000000000000000000000000000000000000000000000000602082015250565b60006129f3602383611c0e565b91506129fe82612997565b604082019050919050565b60006020820190508181036000830152612a22816129e6565b9050919050565b7f45524332303a207472616e7366657220616d6f756e742065786365656473206260008201527f616c616e63650000000000000000000000000000000000000000000000000000602082015250565b6000612a85602683611c0e565b9150612a9082612a29565b604082019050919050565b60006020820190508181036000830152612ab481612a78565b9050919050565b612ac48161204e565b8114612acf57600080fd5b50565b600081519050612ae181612abb565b92915050565b600060208284031215612afd57612afc611cc8565b5b6000612b0b84828501612ad2565b91505092915050565b7f45524331393637557067726164653a206e657720696d706c656d656e7461746960008201527f6f6e206973206e6f742055555053000000000000000000000000000000000000602082015250565b6000612b70602e83611c0e565b9150612b7b82612b14565b604082019050919050565b60006020820190508181036000830152612b9f81612b63565b9050919050565b7f45524331393637557067726164653a20756e737570706f727465642070726f7860008201527f6961626c65555549440000000000000000000000000000000000000000000000602082015250565b6000612c02602983611c0e565b9150612c0d82612ba6565b604082019050919050565b60006020820190508181036000830152612c3181612bf5565b9050919050565b7f4f776e61626c653a2063616c6c6572206973206e6f7420746865206f776e6572600082015250565b6000612c6e602083611c0e565b9150612c7982612c38565b602082019050919050565b60006020820190508181036000830152612c9d81612c61565b9050919050565b7f496e697469616c697a61626c653a20636f6e7472616374206973206e6f74206960008201527f6e697469616c697a696e67000000000000000000000000000000000000000000602082015250565b6000612d00602b83611c0e565b9150612d0b82612ca4565b604082019050919050565b60006020820190508181036000830152612d2f81612cf3565b9050919050565b7f45524332303a206d696e7420746f20746865207a65726f206164647265737300600082015250565b6000612d6c601f83611c0e565b9150612d7782612d36565b602082019050919050565b60006020820190508181036000830152612d9b81612d5f565b9050919050565b7f455243313936373a206e657720696d706c656d656e746174696f6e206973206e60008201527f6f74206120636f6e747261637400000000000000000000000000000000000000602082015250565b6000612dfe602d83611c0e565b9150612e0982612da2565b604082019050919050565b60006020820190508181036000830152612e2d81612df1565b9050919050565b60008190508160005260206000209050919050565b60006020601f8301049050919050565b600082821b905092915050565b600060088302612e967fffffffffffffffffffffffffffffffffffffffffffffffffffffffffffffffff82612e59565b612ea08683612e59565b95508019841693508086168417925050509392505050565b6000612ed3612ece612ec984611d30565b6125fb565b611d30565b9050919050565b6000819050919050565b612eed83612eb8565b612f01612ef982612eda565b848454612e66565b825550505050565b600090565b612f16612f09565b612f21818484612ee4565b505050565b5b81811015612f4557612f3a600082612f0e565b600181019050612f27565b5050565b601f821115612f8a57612f5b81612e34565b612f6484612e49565b81016020851015612f73578190505b612f87612f7f85612e49565b830182612f26565b50505b505050565b600082821c905092915050565b6000612fad60001984600802612f8f565b1980831691505092915050565b6000612fc68383612f9c565b9150826002028217905092915050565b612fdf82611c03565b67ffffffffffffffff811115612ff857612ff7611ec7565b5b613002825461211b565b61300d828285612f49565b600060209050601f831160018114613040576000841561302e578287015190505b6130388582612fba565b8655506130a0565b601f19841661304e86612e34565b60005b8281101561307657848901518255600182019150602085019450602081019050613051565b86831015613093578489015161308f601f891682612f9c565b8355505b6001600288020188555050505b505050505050565b7f416464726573733a2064656c65676174652063616c6c20746f206e6f6e2d636f60008201527f6e74726163740000000000000000000000000000000000000000000000000000602082015250565b6000613104602683611c0e565b915061310f826130a8565b604082019050919050565b60006020820190508181036000830152613133816130f7565b9050919050565b600081519050919050565b600081905092915050565b600061315b8261313a565b6131658185613145565b9350613175818560208601611c1f565b80840191505092915050565b600061318d8284613150565b91508190509291505056fe416464726573733a206c6f772d6c6576656c2064656c65676174652063616c6c206661696c6564a2646970667358221220673c0508c533e0fce883ccaef9e874fde5b406b594ab455746d54748c93910a164736f6c634300080f0033",
  "immutableReferences": {
    "702": [
      {
        "length": 32,
        "start": 1475
      },
      {
        "length": 32,
        "start": 1617
      },
      {
        "length": 32,
        "start": 1922
      },
      {
        "length": 32,
        "start": 2064
      },
      {
        "length": 32,
        "start": 2240
      }
    ]
  },
  "source": "// SPDX-License-Identifier: MIT\npragma solidity ^0.8.15;\n\nimport \"./MyToken.sol\";\n\ncontract MyTokenV2 is MyToken {\n    function hello() public pure returns (string memory) {\n        return 'hello';\n    }\n}",
  "sourcePath": "/Users/linzhiyun/Desktop/blockchain_projects/my-token/contracts/MyTokenV2.sol",
  "compiler": {
    "name": "solc",
    "version": "0.8.15+commit.e14f2714.Emscripten.clang"
  },
  "schemaVersion": "3.4.8",
  "updatedAt": "2022-07-28T07:43:09.892Z",
  "devdoc": {
    "kind": "dev",
    "methods": {
      "allowance(address,address)": {
        "details": "See {IERC20-allowance}."
      },
      "approve(address,uint256)": {
        "details": "See {IERC20-approve}. NOTE: If `amount` is the maximum `uint256`, the allowance is not updated on `transferFrom`. This is semantically equivalent to an infinite approval. Requirements: - `spender` cannot be the zero address."
      },
      "balanceOf(address)": {
        "details": "See {IERC20-balanceOf}."
      },
      "decimals()": {
        "details": "Returns the number of decimals used to get its user representation. For example, if `decimals` equals `2`, a balance of `505` tokens should be displayed to a user as `5.05` (`505 / 10 ** 2`). Tokens usually opt for a value of 18, imitating the relationship between Ether and Wei. This is the value {ERC20} uses, unless this function is overridden; NOTE: This information is only used for _display_ purposes: it in no way affects any of the arithmetic of the contract, including {IERC20-balanceOf} and {IERC20-transfer}."
      },
      "decreaseAllowance(address,uint256)": {
        "details": "Atomically decreases the allowance granted to `spender` by the caller. This is an alternative to {approve} that can be used as a mitigation for problems described in {IERC20-approve}. Emits an {Approval} event indicating the updated allowance. Requirements: - `spender` cannot be the zero address. - `spender` must have allowance for the caller of at least `subtractedValue`."
      },
      "increaseAllowance(address,uint256)": {
        "details": "Atomically increases the allowance granted to `spender` by the caller. This is an alternative to {approve} that can be used as a mitigation for problems described in {IERC20-approve}. Emits an {Approval} event indicating the updated allowance. Requirements: - `spender` cannot be the zero address."
      },
      "name()": {
        "details": "Returns the name of the token."
      },
      "owner()": {
        "details": "Returns the address of the current owner."
      },
      "proxiableUUID()": {
        "details": "Implementation of the ERC1822 {proxiableUUID} function. This returns the storage slot used by the implementation. It is used to validate that the this implementation remains valid after an upgrade. IMPORTANT: A proxy pointing at a proxiable contract should not be considered proxiable itself, because this risks bricking a proxy that upgrades to it, by delegating to itself until out of gas. Thus it is critical that this function revert if invoked through a proxy. This is guaranteed by the `notDelegated` modifier."
      },
      "renounceOwnership()": {
        "details": "Leaves the contract without owner. It will not be possible to call `onlyOwner` functions anymore. Can only be called by the current owner. NOTE: Renouncing ownership will leave the contract without an owner, thereby removing any functionality that is only available to the owner."
      },
      "symbol()": {
        "details": "Returns the symbol of the token, usually a shorter version of the name."
      },
      "totalSupply()": {
        "details": "See {IERC20-totalSupply}."
      },
      "transfer(address,uint256)": {
        "details": "See {IERC20-transfer}. Requirements: - `to` cannot be the zero address. - the caller must have a balance of at least `amount`."
      },
      "transferFrom(address,address,uint256)": {
        "details": "See {IERC20-transferFrom}. Emits an {Approval} event indicating the updated allowance. This is not required by the EIP. See the note at the beginning of {ERC20}. NOTE: Does not update the allowance if the current allowance is the maximum `uint256`. Requirements: - `from` and `to` cannot be the zero address. - `from` must have a balance of at least `amount`. - the caller must have allowance for ``from``'s tokens of at least `amount`."
      },
      "transferOwnership(address)": {
        "details": "Transfers ownership of the contract to a new account (`newOwner`). Can only be called by the current owner."
      },
      "upgradeTo(address)": {
        "details": "Upgrade the implementation of the proxy to `newImplementation`. Calls {_authorizeUpgrade}. Emits an {Upgraded} event."
      },
      "upgradeToAndCall(address,bytes)": {
        "details": "Upgrade the implementation of the proxy to `newImplementation`, and subsequently execute the function call encoded in `data`. Calls {_authorizeUpgrade}. Emits an {Upgraded} event."
      }
    },
    "version": 1
  },
  "userdoc": {
    "kind": "user",
    "methods": {},
    "version": 1
  }
}